{"abi":[{"type":"constructor","inputs":[{"name":"_pool","type":"address","internalType":"address"}],"stateMutability":"nonpayable"},{"type":"function","name":"DOMAIN_SEPARATOR","inputs":[],"outputs":[{"name":"","type":"bytes32","internalType":"bytes32"}],"stateMutability":"view"},{"type":"function","name":"allowance","inputs":[{"name":"","type":"address","internalType":"address"},{"name":"","type":"address","internalType":"address"}],"outputs":[{"name":"","type":"uint256","internalType":"uint256"}],"stateMutability":"view"},{"type":"function","name":"approve","inputs":[{"name":"spender","type":"address","internalType":"address"},{"name":"amount","type":"uint256","internalType":"uint256"}],"outputs":[{"name":"","type":"bool","internalType":"bool"}],"stateMutability":"nonpayable"},{"type":"function","name":"balanceOf","inputs":[{"name":"","type":"address","internalType":"address"}],"outputs":[{"name":"","type":"uint256","internalType":"uint256"}],"stateMutability":"view"},{"type":"function","name":"burn","inputs":[{"name":"from","type":"address","internalType":"address"},{"name":"amount","type":"uint256","internalType":"uint256"}],"outputs":[],"stateMutability":"nonpayable"},{"type":"function","name":"decimals","inputs":[],"outputs":[{"name":"","type":"uint8","internalType":"uint8"}],"stateMutability":"view"},{"type":"function","name":"mint","inputs":[{"name":"to","type":"address","internalType":"address"},{"name":"amount","type":"uint256","internalType":"uint256"}],"outputs":[],"stateMutability":"nonpayable"},{"type":"function","name":"name","inputs":[],"outputs":[{"name":"","type":"string","internalType":"string"}],"stateMutability":"view"},{"type":"function","name":"nonces","inputs":[{"name":"","type":"address","internalType":"address"}],"outputs":[{"name":"","type":"uint256","internalType":"uint256"}],"stateMutability":"view"},{"type":"function","name":"permit","inputs":[{"name":"owner","type":"address","internalType":"address"},{"name":"spender","type":"address","internalType":"address"},{"name":"value","type":"uint256","internalType":"uint256"},{"name":"deadline","type":"uint256","internalType":"uint256"},{"name":"v","type":"uint8","internalType":"uint8"},{"name":"r","type":"bytes32","internalType":"bytes32"},{"name":"s","type":"bytes32","internalType":"bytes32"}],"outputs":[],"stateMutability":"nonpayable"},{"type":"function","name":"pool","inputs":[],"outputs":[{"name":"","type":"address","internalType":"address"}],"stateMutability":"view"},{"type":"function","name":"symbol","inputs":[],"outputs":[{"name":"","type":"string","internalType":"string"}],"stateMutability":"view"},{"type":"function","name":"totalSupply","inputs":[],"outputs":[{"name":"","type":"uint256","internalType":"uint256"}],"stateMutability":"view"},{"type":"function","name":"transfer","inputs":[{"name":"to","type":"address","internalType":"address"},{"name":"amount","type":"uint256","internalType":"uint256"}],"outputs":[{"name":"","type":"bool","internalType":"bool"}],"stateMutability":"nonpayable"},{"type":"function","name":"transferFrom","inputs":[{"name":"from","type":"address","internalType":"address"},{"name":"to","type":"address","internalType":"address"},{"name":"amount","type":"uint256","internalType":"uint256"}],"outputs":[{"name":"","type":"bool","internalType":"bool"}],"stateMutability":"nonpayable"},{"type":"event","name":"Approval","inputs":[{"name":"owner","type":"address","indexed":true,"internalType":"address"},{"name":"spender","type":"address","indexed":true,"internalType":"address"},{"name":"amount","type":"uint256","indexed":false,"internalType":"uint256"}],"anonymous":false},{"type":"event","name":"Transfer","inputs":[{"name":"from","type":"address","indexed":true,"internalType":"address"},{"name":"to","type":"address","indexed":true,"internalType":"address"},{"name":"amount","type":"uint256","indexed":false,"internalType":"uint256"}],"anonymous":false}],"bytecode":{"object":"0x60e060405234801561000f575f5ffd5b50604051610f97380380610f9783398101604081905261002e91610150565b6040805180820182526006808252654c774859504560d01b60208084018290528451808601909552918452908301529060125f61006b8482610215565b5060016100788382610215565b5060ff81166080524660a05261008c6100b8565b60c0525050600680546001600160a01b0319166001600160a01b03939093169290921790915550610340565b5f7f8b73c3c69bb8fe3d512ecc4cf759cc79239f7b179b0ffacaa9a75d522b39400f5f6040516100e891906102cf565b6040805191829003822060208301939093528101919091527fc89efdaa54c0f20c7adf612882df0950f5a951637e0307cdcb4c672f298b8bc660608201524660808201523060a082015260c00160405160208183030381529060405280519060200120905090565b5f60208284031215610160575f5ffd5b81516001600160a01b0381168114610176575f5ffd5b9392505050565b634e487b7160e01b5f52604160045260245ffd5b600181811c908216806101a557607f821691505b6020821081036101c357634e487b7160e01b5f52602260045260245ffd5b50919050565b601f82111561021057805f5260205f20601f840160051c810160208510156101ee5750805b601f840160051c820191505b8181101561020d575f81556001016101fa565b50505b505050565b81516001600160401b0381111561022e5761022e61017d565b6102428161023c8454610191565b846101c9565b6020601f821160018114610274575f831561025d5750848201515b5f19600385901b1c1916600184901b17845561020d565b5f84815260208120601f198516915b828110156102a35787850151825560209485019460019092019101610283565b50848210156102c057868401515f19600387901b60f8161c191681555b50505050600190811b01905550565b5f5f83546102dc81610191565b6001821680156102f3576001811461030857610335565b60ff1983168652811515820286019350610335565b865f5260205f205f5b8381101561032d57815488820152600190910190602001610311565b505081860193505b509195945050505050565b60805160a05160c051610c2d61036a5f395f61049201525f61045d01525f61018f0152610c2d5ff3fe608060405234801561000f575f5ffd5b50600436106100f0575f3560e01c806340c10f19116100935780639dc29fac116100635780639dc29fac14610226578063a9059cbb14610239578063d505accf1461024c578063dd62ed3e1461025f575f5ffd5b806340c10f19146101cb57806370a08231146101e05780637ecebe00146101ff57806395d89b411461021e575f5ffd5b806318160ddd116100ce57806318160ddd1461016057806323b872dd14610177578063313ce5671461018a5780633644e515146101c3575f5ffd5b806306fdde03146100f4578063095ea7b31461011257806316f0115b14610135575b5f5ffd5b6100fc610289565b6040516101099190610959565b60405180910390f35b6101256101203660046109a9565b610314565b6040519015158152602001610109565b600654610148906001600160a01b031681565b6040516001600160a01b039091168152602001610109565b61016960025481565b604051908152602001610109565b6101256101853660046109d1565b610380565b6101b17f000000000000000000000000000000000000000000000000000000000000000081565b60405160ff9091168152602001610109565b61016961045a565b6101de6101d93660046109a9565b6104b4565b005b6101696101ee366004610a0b565b60036020525f908152604090205481565b61016961020d366004610a0b565b60056020525f908152604090205481565b6100fc61050d565b6101de6102343660046109a9565b61051a565b6101256102473660046109a9565b61056a565b6101de61025a366004610a2b565b6105cd565b61016961026d366004610a98565b600460209081525f928352604080842090915290825290205481565b5f805461029590610ac9565b80601f01602080910402602001604051908101604052809291908181526020018280546102c190610ac9565b801561030c5780601f106102e35761010080835404028352916020019161030c565b820191905f5260205f20905b8154815290600101906020018083116102ef57829003601f168201915b505050505081565b335f8181526004602090815260408083206001600160a01b038716808552925280832085905551919290917f8c5be1e5ebec7d5bd14f71427d1e84f3dd0314c0f7b2291e5b200ac8c7c3b9259061036e9086815260200190565b60405180910390a35060015b92915050565b6001600160a01b0383165f9081526004602090815260408083203384529091528120545f1981146103d9576103b58382610b15565b6001600160a01b0386165f9081526004602090815260408083203384529091529020555b6001600160a01b0385165f9081526003602052604081208054859290610400908490610b15565b90915550506001600160a01b038085165f81815260036020526040908190208054870190555190918716905f516020610bd85f395f51905f52906104479087815260200190565b60405180910390a3506001949350505050565b5f7f0000000000000000000000000000000000000000000000000000000000000000461461048f5761048a61080b565b905090565b507f000000000000000000000000000000000000000000000000000000000000000090565b6006546001600160a01b031633146104ff5760405162461bcd60e51b815260206004820152600960248201526813db9b1e481c1bdbdb60ba1b60448201526064015b60405180910390fd5b61050982826108a3565b5050565b6001805461029590610ac9565b6006546001600160a01b031633146105605760405162461bcd60e51b815260206004820152600960248201526813db9b1e481c1bdbdb60ba1b60448201526064016104f6565b61050982826108fa565b335f9081526003602052604081208054839190839061058a908490610b15565b90915550506001600160a01b0383165f81815260036020526040908190208054850190555133905f516020610bd85f395f51905f529061036e9086815260200190565b4284101561061d5760405162461bcd60e51b815260206004820152601760248201527f5045524d49545f444541444c494e455f4558504952454400000000000000000060448201526064016104f6565b5f600161062861045a565b6001600160a01b038a81165f8181526005602090815260409182902080546001810190915582517f6e71edae12b1b97f4d1f60370fef10105fa2faae0126114a169c64845d6126c98184015280840194909452938d166060840152608083018c905260a083019390935260c08083018b90528151808403909101815260e08301909152805192019190912061190160f01b6101008301526101028201929092526101228101919091526101420160408051601f1981840301815282825280516020918201205f84529083018083525260ff871690820152606081018590526080810184905260a0016020604051602081039080840390855afa158015610730573d5f5f3e3d5ffd5b5050604051601f1901519150506001600160a01b038116158015906107665750876001600160a01b0316816001600160a01b0316145b6107a35760405162461bcd60e51b815260206004820152600e60248201526d24a72b20a624a22fa9a4a3a722a960911b60448201526064016104f6565b6001600160a01b039081165f9081526004602090815260408083208a8516808552908352928190208990555188815291928a16917f8c5be1e5ebec7d5bd14f71427d1e84f3dd0314c0f7b2291e5b200ac8c7c3b925910160405180910390a350505050505050565b5f7f8b73c3c69bb8fe3d512ecc4cf759cc79239f7b179b0ffacaa9a75d522b39400f5f60405161083b9190610b28565b6040805191829003822060208301939093528101919091527fc89efdaa54c0f20c7adf612882df0950f5a951637e0307cdcb4c672f298b8bc660608201524660808201523060a082015260c00160405160208183030381529060405280519060200120905090565b8060025f8282546108b49190610bc4565b90915550506001600160a01b0382165f818152600360209081526040808320805486019055518481525f516020610bd85f395f51905f5291015b60405180910390a35050565b6001600160a01b0382165f9081526003602052604081208054839290610921908490610b15565b90915550506002805482900390556040518181525f906001600160a01b038416905f516020610bd85f395f51905f52906020016108ee565b602081525f82518060208401528060208501604085015e5f604082850101526040601f19601f83011684010191505092915050565b80356001600160a01b03811681146109a4575f5ffd5b919050565b5f5f604083850312156109ba575f5ffd5b6109c38361098e565b946020939093013593505050565b5f5f5f606084860312156109e3575f5ffd5b6109ec8461098e565b92506109fa6020850161098e565b929592945050506040919091013590565b5f60208284031215610a1b575f5ffd5b610a248261098e565b9392505050565b5f5f5f5f5f5f5f60e0888a031215610a41575f5ffd5b610a4a8861098e565b9650610a586020890161098e565b95506040880135945060608801359350608088013560ff81168114610a7b575f5ffd5b9699959850939692959460a0840135945060c09093013592915050565b5f5f60408385031215610aa9575f5ffd5b610ab28361098e565b9150610ac06020840161098e565b90509250929050565b600181811c90821680610add57607f821691505b602082108103610afb57634e487b7160e01b5f52602260045260245ffd5b50919050565b634e487b7160e01b5f52601160045260245ffd5b8181038181111561037a5761037a610b01565b5f5f83545f8160011c90506001821680610b4357607f821691505b602082108103610b6157634e487b7160e01b5f52602260045260245ffd5b808015610b755760018114610b8a57610bb8565b60ff1984168752821515830287019450610bb8565b5f888152602090205f5b84811015610bb057815489820152600190910190602001610b94565b505082870194505b50929695505050505050565b8082018082111561037a5761037a610b0156feddf252ad1be2c89b69c2b068fc378daa952ba7f163c4a11628f55a4df523b3efa2646970667358221220db224b25495b26815e2103554aecf1bab4f2d3ac52856544c04edf38390c30f064736f6c634300081b0033","linkReferences":{}},"methodIdentifiers":{"DOMAIN_SEPARATOR()":"3644e515","allowance(address,address)":"dd62ed3e","approve(address,uint256)":"095ea7b3","balanceOf(address)":"70a08231","burn(address,uint256)":"9dc29fac","decimals()":"313ce567","mint(address,uint256)":"40c10f19","name()":"06fdde03","nonces(address)":"7ecebe00","permit(address,address,uint256,uint256,uint8,bytes32,bytes32)":"d505accf","pool()":"16f0115b","symbol()":"95d89b41","totalSupply()":"18160ddd","transfer(address,uint256)":"a9059cbb","transferFrom(address,address,uint256)":"23b872dd"},"id":21}