{"abi":[{"type":"constructor","inputs":[{"name":"_usdc","type":"address","internalType":"address"},{"name":"_wHYPE","type":"address","internalType":"address"},{"name":"_priceOracle","type":"address","internalType":"address"}],"stateMutability":"nonpayable"},{"type":"function","name":"INTEREST_RATE","inputs":[],"outputs":[{"name":"","type":"uint256","internalType":"uint256"}],"stateMutability":"view"},{"type":"function","name":"LTV","inputs":[],"outputs":[{"name":"","type":"uint256","internalType":"uint256"}],"stateMutability":"view"},{"type":"function","name":"accounts","inputs":[{"name":"","type":"address","internalType":"address"}],"outputs":[{"name":"lastInterestAccrual","type":"uint256","internalType":"uint256"},{"name":"collateral","type":"uint256","internalType":"uint256"},{"name":"liquidity","type":"uint256","internalType":"uint256"},{"name":"debt","type":"uint256","internalType":"uint256"}],"stateMutability":"view"},{"type":"function","name":"checkHealth","inputs":[{"name":"user","type":"address","internalType":"address"}],"outputs":[{"name":"","type":"bool","internalType":"bool"}],"stateMutability":"view"},{"type":"function","name":"deposit","inputs":[{"name":"amount","type":"uint256","internalType":"uint256"}],"outputs":[],"stateMutability":"nonpayable"},{"type":"function","name":"depositCollateral","inputs":[{"name":"amount","type":"uint256","internalType":"uint256"}],"outputs":[],"stateMutability":"nonpayable"},{"type":"function","name":"liquidatePosition","inputs":[{"name":"borrower","type":"address","internalType":"address"}],"outputs":[],"stateMutability":"nonpayable"},{"type":"function","name":"lpToken","inputs":[],"outputs":[{"name":"","type":"address","internalType":"contract LPToken"}],"stateMutability":"view"},{"type":"function","name":"payback","inputs":[{"name":"amount","type":"uint256","internalType":"uint256"}],"outputs":[],"stateMutability":"nonpayable"},{"type":"function","name":"priceOracle","inputs":[],"outputs":[{"name":"","type":"address","internalType":"contract PriceOracle"}],"stateMutability":"view"},{"type":"function","name":"redeem","inputs":[{"name":"amount","type":"uint256","internalType":"uint256"}],"outputs":[],"stateMutability":"nonpayable"},{"type":"function","name":"removeCollateral","inputs":[{"name":"amount","type":"uint256","internalType":"uint256"}],"outputs":[],"stateMutability":"nonpayable"},{"type":"function","name":"takeLoan","inputs":[{"name":"amount","type":"uint256","internalType":"uint256"}],"outputs":[],"stateMutability":"nonpayable"},{"type":"function","name":"totalCollateral","inputs":[],"outputs":[{"name":"","type":"uint256","internalType":"uint256"}],"stateMutability":"view"},{"type":"function","name":"totalDebt","inputs":[],"outputs":[{"name":"","type":"uint256","internalType":"uint256"}],"stateMutability":"view"},{"type":"function","name":"usdc","inputs":[],"outputs":[{"name":"","type":"address","internalType":"contract ERC20"}],"stateMutability":"view"},{"type":"function","name":"wHYPE","inputs":[],"outputs":[{"name":"","type":"address","internalType":"contract ERC20"}],"stateMutability":"view"}],"bytecode":{"object":"0x608060405234801561000f575f5ffd5b5060405161203138038061203183398101604081905261002e916100f4565b600480546001600160a01b038086166001600160a01b0319928316179092556005805485841690831617905560068054928416929091169190911790556040513090610079906100cc565b6001600160a01b039091168152602001604051809103905ff0801580156100a2573d5f5f3e3d5ffd5b50600380546001600160a01b0319166001600160a01b039290921691909117905550610134915050565b610f978061109a83390190565b80516001600160a01b03811681146100ef575f5ffd5b919050565b5f5f5f60608486031215610106575f5ffd5b61010f846100d9565b925061011d602085016100d9565b915061012b604085016100d9565b90509250925092565b610f59806101415f395ff3fe608060405234801561000f575f5ffd5b5060043610610106575f3560e01c806362965d8e1161009e578063b6b55f251161006e578063b6b55f251461023c578063bad4a01f1461024f578063db006a7514610262578063f19507af14610275578063fc7b9c1814610298575f5ffd5b806362965d8e146101fb5780637498a0f0146102035780638c803fc214610216578063a846c2fd14610229575f5ffd5b80634ac8eb5f116100d95780634ac8eb5f146101755780635b72a33a1461018c5780635e5c06e2146101945780635fcbd285146101e8575f5ffd5b80632630c12f1461010a5780632e8dcc981461013a5780633237c1581461014d5780633e413bee14610162575b5f5ffd5b60065461011d906001600160a01b031681565b6040516001600160a01b0390911681526020015b60405180910390f35b60055461011d906001600160a01b031681565b61016061015b366004610e22565b6102a1565b005b60045461011d906001600160a01b031681565b61017e60025481565b604051908152602001610131565b61017e600581565b6101c86101a2366004610e39565b5f6020819052908152604090208054600182015460028301546003909301549192909184565b604080519485526020850193909352918301526060820152608001610131565b60035461011d906001600160a01b031681565b61017e604b81565b610160610211366004610e39565b6103d5565b610160610224366004610e22565b61059c565b610160610237366004610e22565b610671565b61016061024a366004610e22565b610710565b61016061025d366004610e22565b6108bb565b610160610270366004610e22565b610941565b610288610283366004610e39565b610b24565b6040519015158152602001610131565b61017e60015481565b5f81116102c95760405162461bcd60e51b81526004016102c090610e5f565b60405180910390fd5b6102d233610c25565b335f90815260208190526040902060018101548211156103345760405162461bcd60e51b815260206004820152601760248201527f496e73756666696369656e7420636f6c6c61746572616c00000000000000000060448201526064016102c0565b81816001015f8282546103479190610eaa565b925050819055508160025f82825461035f9190610eaa565b9091555061036e905033610b24565b6103ba5760405162461bcd60e51b815260206004820152601b60248201527f506f736974696f6e20776f756c6420626520756e6865616c746879000000000060448201526064016102c0565b6005546103d1906001600160a01b03163384610c90565b5050565b6103de81610c25565b6103e781610b24565b1561042a5760405162461bcd60e51b8152602060048201526013602482015272506f736974696f6e206973206865616c74687960681b60448201526064016102c0565b6001600160a01b0381165f90815260208190526040902060038101548061048a5760405162461bcd60e51b81526020600482015260146024820152734e6f206465627420746f206c697175696461746560601b60448201526064016102c0565b5f6305f5e10060065f9054906101000a90046001600160a01b03166001600160a01b03166350d25bcd6040518163ffffffff1660e01b8152600401602060405180830381865afa1580156104e0573d5f5f3e3d5ffd5b505050506040513d601f19601f820116820180604052508101906105049190610ec3565b84600101546105139190610eda565b61051d9190610ef1565b90505f83600101549050836001015460025f82825461053c9190610eaa565b925050819055508260015f8282546105549190610eaa565b90915550505f60018501819055600385015560055461057d906001600160a01b03163383610c90565b600454610595906001600160a01b0316333086610d19565b5050505050565b5f81116105bb5760405162461bcd60e51b81526004016102c090610e5f565b6105c433610c25565b335f908152602081905260408120600381018054919284926105e7908490610f10565b925050819055508160015f8282546105ff9190610f10565b9091555061060e905033610b24565b61065a5760405162461bcd60e51b815260206004820152601b60248201527f506f736974696f6e20776f756c6420626520756e6865616c746879000000000060448201526064016102c0565b6004546103d1906001600160a01b03163384610c90565b5f81116106905760405162461bcd60e51b81526004016102c090610e5f565b61069933610c25565b335f908152602081905260408120600381015490919083116106bb57826106c1565b81600301545b905080826003015f8282546106d69190610eaa565b925050819055508060015f8282546106ee9190610eaa565b909155505060045461070b906001600160a01b0316333084610d19565b505050565b5f811161072f5760405162461bcd60e51b81526004016102c090610e5f565b5f5f60035f9054906101000a90046001600160a01b03166001600160a01b03166318160ddd6040518163ffffffff1660e01b8152600401602060405180830381865afa158015610781573d5f5f3e3d5ffd5b505050506040513d601f19601f820116820180604052508101906107a59190610ec3565b600480546040516370a0823160e01b815230928101929092529192505f916001600160a01b0316906370a0823190602401602060405180830381865afa1580156107f1573d5f5f3e3d5ffd5b505050506040513d601f19601f820116820180604052508101906108159190610ec3565b9050815f036108265783925061083e565b806108318386610eda565b61083b9190610ef1565b92505b600454610856906001600160a01b0316333087610d19565b6003546040516340c10f1960e01b8152336004820152602481018590526001600160a01b03909116906340c10f19906044015f604051808303815f87803b15801561089f575f5ffd5b505af11580156108b1573d5f5f3e3d5ffd5b5050505050505050565b5f81116108da5760405162461bcd60e51b81526004016102c090610e5f565b6005546108f2906001600160a01b0316333084610d19565b335f908152602081905260408120805490910361090d574281555b81816001015f8282546109209190610f10565b925050819055508160025f8282546109389190610f10565b90915550505050565b5f81116109605760405162461bcd60e51b81526004016102c090610e5f565b600480546040516370a0823160e01b815230928101929092525f916001600160a01b03909116906370a0823190602401602060405180830381865afa1580156109ab573d5f5f3e3d5ffd5b505050506040513d601f19601f820116820180604052508101906109cf9190610ec3565b90505f60035f9054906101000a90046001600160a01b03166001600160a01b03166318160ddd6040518163ffffffff1660e01b8152600401602060405180830381865afa158015610a22573d5f5f3e3d5ffd5b505050506040513d601f19601f82011682018060405250810190610a469190610ec3565b90505f8111610a905760405162461bcd60e51b81526020600482015260166024820152754e6f204c5020746f6b656e7320746f2072656465656d60501b60448201526064016102c0565b5f81610a9c8486610eda565b610aa69190610ef1565b600354604051632770a7eb60e21b8152336004820152602481018790529192506001600160a01b031690639dc29fac906044015f604051808303815f87803b158015610af0575f5ffd5b505af1158015610b02573d5f5f3e3d5ffd5b5050600454610b1e92506001600160a01b031690503383610c90565b50505050565b6001600160a01b0381165f90815260208190526040812060038101548203610b4f5750600192915050565b5f6305f5e10060065f9054906101000a90046001600160a01b03166001600160a01b03166350d25bcd6040518163ffffffff1660e01b8152600401602060405180830381865afa158015610ba5573d5f5f3e3d5ffd5b505050506040513d601f19601f82011682018060405250810190610bc99190610ec3565b8360010154610bd89190610eda565b610be29190610ef1565b90505f6064610bf2604b84610eda565b610bfc9190610ef1565b90505f610c0884610db6565b8460030154610c179190610f10565b919091111595945050505050565b6001600160a01b0381165f9081526020819052604081206003810154909103610c4c575050565b5f610c5682610db6565b905080826003015f828254610c6b9190610f10565b925050819055508060015f828254610c839190610f10565b9091555050429091555050565b5f60405163a9059cbb60e01b81526001600160a01b038416600482015282602482015260205f6044835f895af191505080601f3d1160015f511416151615610cda5750823b153d17155b80610b1e5760405162461bcd60e51b815260206004820152600f60248201526e1514905394d1915497d19052531151608a1b60448201526064016102c0565b5f6040516323b872dd60e01b81526001600160a01b03851660048201526001600160a01b038416602482015282604482015260205f6064835f8a5af191505080601f3d1160015f511416151615610d725750833b153d17155b806105955760405162461bcd60e51b81526020600482015260146024820152731514905394d1915497d19493d357d1905253115160621b60448201526064016102c0565b80545f901580610dc857506003820154155b15610dd457505f919050565b81545f90610de29042610eaa565b905060646301e133808260058660030154610dfd9190610eda565b610e079190610eda565b610e119190610ef1565b610e1b9190610ef1565b9392505050565b5f60208284031215610e32575f5ffd5b5035919050565b5f60208284031215610e49575f5ffd5b81356001600160a01b0381168114610e1b575f5ffd5b6020808252601d908201527f416d6f756e74206d7573742062652067726561746572207468616e2030000000604082015260600190565b634e487b7160e01b5f52601160045260245ffd5b81810381811115610ebd57610ebd610e96565b92915050565b5f60208284031215610ed3575f5ffd5b5051919050565b8082028115828204841417610ebd57610ebd610e96565b5f82610f0b57634e487b7160e01b5f52601260045260245ffd5b500490565b80820180821115610ebd57610ebd610e9656fea2646970667358221220222ece823c2807f6c95a7a0ca2c8a49fc6542916166d43015a4d0df23055dfc164736f6c634300081b003360e060405234801561000f575f5ffd5b50604051610f97380380610f9783398101604081905261002e91610150565b6040805180820182526006808252654c774859504560d01b60208084018290528451808601909552918452908301529060125f61006b8482610215565b5060016100788382610215565b5060ff81166080524660a05261008c6100b8565b60c0525050600680546001600160a01b0319166001600160a01b03939093169290921790915550610340565b5f7f8b73c3c69bb8fe3d512ecc4cf759cc79239f7b179b0ffacaa9a75d522b39400f5f6040516100e891906102cf565b6040805191829003822060208301939093528101919091527fc89efdaa54c0f20c7adf612882df0950f5a951637e0307cdcb4c672f298b8bc660608201524660808201523060a082015260c00160405160208183030381529060405280519060200120905090565b5f60208284031215610160575f5ffd5b81516001600160a01b0381168114610176575f5ffd5b9392505050565b634e487b7160e01b5f52604160045260245ffd5b600181811c908216806101a557607f821691505b6020821081036101c357634e487b7160e01b5f52602260045260245ffd5b50919050565b601f82111561021057805f5260205f20601f840160051c810160208510156101ee5750805b601f840160051c820191505b8181101561020d575f81556001016101fa565b50505b505050565b81516001600160401b0381111561022e5761022e61017d565b6102428161023c8454610191565b846101c9565b6020601f821160018114610274575f831561025d5750848201515b5f19600385901b1c1916600184901b17845561020d565b5f84815260208120601f198516915b828110156102a35787850151825560209485019460019092019101610283565b50848210156102c057868401515f19600387901b60f8161c191681555b50505050600190811b01905550565b5f5f83546102dc81610191565b6001821680156102f3576001811461030857610335565b60ff1983168652811515820286019350610335565b865f5260205f205f5b8381101561032d57815488820152600190910190602001610311565b505081860193505b509195945050505050565b60805160a05160c051610c2d61036a5f395f61049201525f61045d01525f61018f0152610c2d5ff3fe608060405234801561000f575f5ffd5b50600436106100f0575f3560e01c806340c10f19116100935780639dc29fac116100635780639dc29fac14610226578063a9059cbb14610239578063d505accf1461024c578063dd62ed3e1461025f575f5ffd5b806340c10f19146101cb57806370a08231146101e05780637ecebe00146101ff57806395d89b411461021e575f5ffd5b806318160ddd116100ce57806318160ddd1461016057806323b872dd14610177578063313ce5671461018a5780633644e515146101c3575f5ffd5b806306fdde03146100f4578063095ea7b31461011257806316f0115b14610135575b5f5ffd5b6100fc610289565b6040516101099190610959565b60405180910390f35b6101256101203660046109a9565b610314565b6040519015158152602001610109565b600654610148906001600160a01b031681565b6040516001600160a01b039091168152602001610109565b61016960025481565b604051908152602001610109565b6101256101853660046109d1565b610380565b6101b17f000000000000000000000000000000000000000000000000000000000000000081565b60405160ff9091168152602001610109565b61016961045a565b6101de6101d93660046109a9565b6104b4565b005b6101696101ee366004610a0b565b60036020525f908152604090205481565b61016961020d366004610a0b565b60056020525f908152604090205481565b6100fc61050d565b6101de6102343660046109a9565b61051a565b6101256102473660046109a9565b61056a565b6101de61025a366004610a2b565b6105cd565b61016961026d366004610a98565b600460209081525f928352604080842090915290825290205481565b5f805461029590610ac9565b80601f01602080910402602001604051908101604052809291908181526020018280546102c190610ac9565b801561030c5780601f106102e35761010080835404028352916020019161030c565b820191905f5260205f20905b8154815290600101906020018083116102ef57829003601f168201915b505050505081565b335f8181526004602090815260408083206001600160a01b038716808552925280832085905551919290917f8c5be1e5ebec7d5bd14f71427d1e84f3dd0314c0f7b2291e5b200ac8c7c3b9259061036e9086815260200190565b60405180910390a35060015b92915050565b6001600160a01b0383165f9081526004602090815260408083203384529091528120545f1981146103d9576103b58382610b15565b6001600160a01b0386165f9081526004602090815260408083203384529091529020555b6001600160a01b0385165f9081526003602052604081208054859290610400908490610b15565b90915550506001600160a01b038085165f81815260036020526040908190208054870190555190918716905f516020610bd85f395f51905f52906104479087815260200190565b60405180910390a3506001949350505050565b5f7f0000000000000000000000000000000000000000000000000000000000000000461461048f5761048a61080b565b905090565b507f000000000000000000000000000000000000000000000000000000000000000090565b6006546001600160a01b031633146104ff5760405162461bcd60e51b815260206004820152600960248201526813db9b1e481c1bdbdb60ba1b60448201526064015b60405180910390fd5b61050982826108a3565b5050565b6001805461029590610ac9565b6006546001600160a01b031633146105605760405162461bcd60e51b815260206004820152600960248201526813db9b1e481c1bdbdb60ba1b60448201526064016104f6565b61050982826108fa565b335f9081526003602052604081208054839190839061058a908490610b15565b90915550506001600160a01b0383165f81815260036020526040908190208054850190555133905f516020610bd85f395f51905f529061036e9086815260200190565b4284101561061d5760405162461bcd60e51b815260206004820152601760248201527f5045524d49545f444541444c494e455f4558504952454400000000000000000060448201526064016104f6565b5f600161062861045a565b6001600160a01b038a81165f8181526005602090815260409182902080546001810190915582517f6e71edae12b1b97f4d1f60370fef10105fa2faae0126114a169c64845d6126c98184015280840194909452938d166060840152608083018c905260a083019390935260c08083018b90528151808403909101815260e08301909152805192019190912061190160f01b6101008301526101028201929092526101228101919091526101420160408051601f1981840301815282825280516020918201205f84529083018083525260ff871690820152606081018590526080810184905260a0016020604051602081039080840390855afa158015610730573d5f5f3e3d5ffd5b5050604051601f1901519150506001600160a01b038116158015906107665750876001600160a01b0316816001600160a01b0316145b6107a35760405162461bcd60e51b815260206004820152600e60248201526d24a72b20a624a22fa9a4a3a722a960911b60448201526064016104f6565b6001600160a01b039081165f9081526004602090815260408083208a8516808552908352928190208990555188815291928a16917f8c5be1e5ebec7d5bd14f71427d1e84f3dd0314c0f7b2291e5b200ac8c7c3b925910160405180910390a350505050505050565b5f7f8b73c3c69bb8fe3d512ecc4cf759cc79239f7b179b0ffacaa9a75d522b39400f5f60405161083b9190610b28565b6040805191829003822060208301939093528101919091527fc89efdaa54c0f20c7adf612882df0950f5a951637e0307cdcb4c672f298b8bc660608201524660808201523060a082015260c00160405160208183030381529060405280519060200120905090565b8060025f8282546108b49190610bc4565b90915550506001600160a01b0382165f818152600360209081526040808320805486019055518481525f516020610bd85f395f51905f5291015b60405180910390a35050565b6001600160a01b0382165f9081526003602052604081208054839290610921908490610b15565b90915550506002805482900390556040518181525f906001600160a01b038416905f516020610bd85f395f51905f52906020016108ee565b602081525f82518060208401528060208501604085015e5f604082850101526040601f19601f83011684010191505092915050565b80356001600160a01b03811681146109a4575f5ffd5b919050565b5f5f604083850312156109ba575f5ffd5b6109c38361098e565b946020939093013593505050565b5f5f5f606084860312156109e3575f5ffd5b6109ec8461098e565b92506109fa6020850161098e565b929592945050506040919091013590565b5f60208284031215610a1b575f5ffd5b610a248261098e565b9392505050565b5f5f5f5f5f5f5f60e0888a031215610a41575f5ffd5b610a4a8861098e565b9650610a586020890161098e565b95506040880135945060608801359350608088013560ff81168114610a7b575f5ffd5b9699959850939692959460a0840135945060c09093013592915050565b5f5f60408385031215610aa9575f5ffd5b610ab28361098e565b9150610ac06020840161098e565b90509250929050565b600181811c90821680610add57607f821691505b602082108103610afb57634e487b7160e01b5f52602260045260245ffd5b50919050565b634e487b7160e01b5f52601160045260245ffd5b8181038181111561037a5761037a610b01565b5f5f83545f8160011c90506001821680610b4357607f821691505b602082108103610b6157634e487b7160e01b5f52602260045260245ffd5b808015610b755760018114610b8a57610bb8565b60ff1984168752821515830287019450610bb8565b5f888152602090205f5b84811015610bb057815489820152600190910190602001610b94565b505082870194505b50929695505050505050565b8082018082111561037a5761037a610b0156feddf252ad1be2c89b69c2b068fc378daa952ba7f163c4a11628f55a4df523b3efa2646970667358221220db224b25495b26815e2103554aecf1bab4f2d3ac52856544c04edf38390c30f064736f6c634300081b0033","linkReferences":{}},"methodIdentifiers":{"INTEREST_RATE()":"5b72a33a","LTV()":"62965d8e","accounts(address)":"5e5c06e2","checkHealth(address)":"f19507af","deposit(uint256)":"b6b55f25","depositCollateral(uint256)":"bad4a01f","liquidatePosition(address)":"7498a0f0","lpToken()":"5fcbd285","payback(uint256)":"a846c2fd","priceOracle()":"2630c12f","redeem(uint256)":"db006a75","removeCollateral(uint256)":"3237c158","takeLoan(uint256)":"8c803fc2","totalCollateral()":"4ac8eb5f","totalDebt()":"fc7b9c18","usdc()":"3e413bee","wHYPE()":"2e8dcc98"},"id":21}